:020000040800F2
:1000000000000220D53B010825E7000827E700088B
:1000100029E700082BE700082DE700080000000092
:1000200000000000000000000000000011C30008F4
:100030002FE7000800000000B1C3000831E7000806
:10004000293C0108293C0108293C0108293C0108F8
:10005000293C0108293C0108A9E80008293C0108BD
:10006000B3E80008BDE80008C7E80008293C01081B
:10007000293C010839E70008293C010849E7000844
:10008000293C0108293C010825E8000859E7000837
:1000900069E7000879E7000889E70008D1E8000867
:1000A000293C010859E80008293C0108293C0108BD
:1000B000293C0108293C0108293C010889E800087D
:1000C00099E80008293C0108293C0108293C01085D
:1000D000293C0108293C0108293C0108293C010868
:1000E000F7E80008293C0108293C0108293C0108DF
:1000F00071E8000899E70008293C0108293C01083B
:10010000293C0108293C0108293C0108293C010837
:10011000B1E70008293C0108293C0108293C0108F5
:10012000293C0108293C0108293C0108293C010817
:10013000293C01080000000000000000293C0108E3
:10014000293C0108293C0108293C0108C1E70008B5
:10015000293C0108293C0108293C0108293C0108E7
:10016000293C0108293C0108293C0108293C0108D7
:10017000293C0108293C01080000000000000000A3
:08018000293C0108293C01089B
:1001C000044B05481B1A062B02D9044B03B11847F0
:1001D000704700BF9B04002098040020000000002E
:1001E00005490648091A891001EBD171491002D05E
:1001F000034B03B11847704798040020980400206F
:100200000000000010B5064C237843B9FFF7D8FF73
:10021000044B13B10448AFF300800123237010BDD9
:10022000A0040020000000003C45020808B5084B6F
:100230001BB108490848AFF300800848036813B9A8
:10024000BDE80840CCE7064B002BF9D09847F7E70C
:1002500000000000A40400203C450208980400208F
:100260000000000000B510EE103A204A23F00043D1
:10027000934283B019DDB3F1FF4F04DB30EE400A47
:1002800003B05DF804FB684600F0B2F900F003002B
:1002900001281AD002280FD000B30120DDED010A99
:1002A0009DED000A00F0B6FEEAE7DFED110A00F06E
:1002B000E7FA03B05DF804FBDDED010A9DED000AED
:1002C00000F0DEFAB1EE400ADAE7DDED010A9DED5D
:1002D000000A00F09FFEB1EE400AD1E7DDED010A11
:1002E0009DED000A00F0CCFACAE700BFD80F493FE5
:1002F0000000000010EE102A22F00041CB0D7F3BE1
:10030000162B17DC002B10EE100A19DB1A491941C5
:100310000A4222D0DFED197A70EE277AF5EEC07A24
:10032000F1EE10FA19DD002A18DB20EA010300EED5
:10033000103A7047B1F1FF4F0FD330EE000A70470B
:10034000DFED0E7A70EE277AF5EEC07AF1EE10FA54
:1003500003DD002A08DB9FED0A0A70474FF4000214
:1003600042FA03F31844E0E70029FFEE007A18BFD1
:10037000B0EE670A704700BFFFFF7F00CAF2497105
:100380000000000000B510EE103A214A23F00043AF
:10039000934283B01ADDB3F1FF4F04DB30EE400A25
:1003A00003B05DF804FB684600F022F900F003009A
:1003B00001281DD0022811D008B3DDED010A9DED02
:1003C000000A00F05DFAB1EE400AE9E70020DFED37
:1003D000110A00F01FFE03B05DF804FB0120DDED03
:1003E000010A9DED000A00F015FEB1EE400AD7E7C4
:1003F000DDED010A9DED000A00F042FAD0E7012090
:10040000DDED010A9DED000A00F004FEC8E700BF23
:10041000D80F493F00000000D0B52DED028B8AB007
:10042000F0EE408AB0EE608A00F056F8284B93F95F
:100430000040631C31D0B4EE488AF1EE10FA2CD69D
:10044000F4EE688AF1EE10FA27D6B5EE408AF1EEA6
:1004500010FA22D101231F4A009318EE900A0023BC
:100460000192089307F0F2FE06460F4618EE100AB6
:10047000CDE9026707F0EAFECDE904018CB9CDE9C8
:100480000667684600F00EFEA8B1089BD3B9DDE907
:10049000060108F027FA00EE100A0AB0BDEC028B44
:1004A000D0BD002200231046194608F04DF8022C5A
:1004B000CDE90601E5D100F09FFE21230360089BF2
:1004C000002BE4D000F098FE089B0360DFE700BF3C
:1004D000000000204C760208F0B482B0CDED010A95
:1004E000019B33F0004538D010EE107A27F000421F
:1004F000B2F1FF4F31DAB5F1FF4F2EDCAA4232DB09
:1005000007F0004436D0B2F5000F3ADA10026FF06F
:100510007D0104D04000002801F1FF31FADCB5F57F
:10052000000F3CDBE8157F3811F17E0F32DBC7F39B
:10053000160242F4000210F17E0F25DBC3F316030E
:1005400043F40003091A02E014D06A000139D51AF5
:1005500061B1002DF8DA5200F8E7DDED017A60EEC6
:10056000277A87EEA70A02B0F0BC7047D31A48BFBB
:100570001346E3B91C4AE30F02EB830393ED000A31
:10058000F1E7D1157F39CAE76FF07D031B1A05FA31
:1005900003F3D7E76FF07D06761AB240CBE72E0261
:1005A0006FF07D00760000F1FF30FBD5BCE70F4A0D
:1005B000934204DC5B00934200F1FF30FADD10F15E
:1005C0007E0F07DA6FF07D02101A0341234300EE1D
:1005D000103AC8E7A3F5000323437F3043EAC05332
:1005E00000EE103ABFE700BFF8450208FFFF7F00AA
:1005F00070B510EE103A944A23F00044944286B04D
:10060000054668DD914A944210EE106A1ADC002B10
:10061000DFED8F7A8F4A24F00F0440F3DD8094429F
:1006200070EE677A66D09FED8C7A77EEC76A01200C
:1006300077EEE67AC5ED006A77EEC77AC5ED017A06
:1006400006B070BD854A944266DDB4F1FF4F49DAC9
:10065000E215863AA4EBC25307EE903ABDEEE77A74
:10066000DFED7F6AB8EEC77A77EEC77A8DED037A51
:1006700067EEA67ABDEEE77AB8EEC77A77EEC77A6C
:100680008DED047A67EEA67AF5EE407AF1EE10FA77
:10069000CDED057A40F0B380B5EE407AF1EE10FA78
:1006A0000CBF012302236F4901910221009103A88D
:1006B000294600F067F9002E12DA95ED007AD5EDA3
:1006C000017AB1EE477AF1EE677A404285ED007A21
:1006D000C5ED017A04E0002285ED000A42600020A9
:1006E00006B070BD70EE407A0020C5ED017AC5ED10
:1006F000007AF5E7DFED5C6A9FED5C7A77EEE67AEB
:10070000012077EEC76A77EEE67AC5ED006A77EEEC
:10071000C77AC5ED017AE3E700F0C6FCDFED546A65
:10072000DFED4B5ADFED4C7AB6EE007AA0EE267A7A
:10073000BDEEC77AF8EEC76A17EE100AB1EE666A28
:100740001F28A6EE250A66EEA77A1DDC494A411E3F
:1007500024F0FF0352F82120934215D030EE677A3F
:1007600085ED007A30EE470A002E30EE670A85EDFF
:10077000010AB5DAB1EE477AB1EE400A85ED007AAA
:1007800085ED010A4042ABE730EE677AE41517EEDB
:10079000103AC3F3C753E31A082BE1DDDFED327AD9
:1007A0009FED327AF0EE405AE6EE275A30EE650AB7
:1007B000A6EE270AF0EE407AD6EE877A35EEE77A93
:1007C00017EE103AC3F3C753E41A192C2CDC85ED4D
:1007D000007AB0EE650AC5E7944270EE277A10D031
:1007E0009FED1D7A77EE876A4FF0FF3077EEE67A5D
:1007F000C5ED006A77EE877AC5ED017A70E70323CD
:1008000051E7DFED196A9FED197A77EEA67A4FF07E
:10081000FF3077EE876A77EEE67AC5ED006A77EE0D
:10082000877AC5ED017A5BE79FED137A9FED135A46
:10083000B0EE650AA6EE070A75EEC07AE6EE077A14
:10084000D6EE857A8AE700BFD80F493FE3CB164042
:10085000800FC93FD00FC93F43443537800F49430C
:1008600000008043804602080044353708A3852EE7
:1008700084F9223F0046020800A3852E32318D24E0
:1008800010EE103A23F00043B3F1485F2CDAFDEE8E
:10089000C07A17EE903A002B60D020EE007ADFEDA0
:1008A000314A9FED315ADFED315A9FED316ADFED6C
:1008B000317ADFED316AA7EE245AE7EE055AA7EE4A
:1008C000256AE7EE067AE7EE276A66EE876A60EE4B
:1008D000C00AB6EE006AE7EE260AF7EE007AD7EE17
:1008E000060A37EEE00A704720EE007ADFED1D4A77
:1008F0009FED1D5ADFED1D5A9FED1D6ADFED1D7A3C
:10090000DFED1D6A1D4AA7EE245A9342E7EE055A11
:10091000A7EE256AE7EE067AE7EE276A66EE876AB3
:10092000D5DD174A934214DC03F17F4307EE903A7A
:10093000B7EE006A36EE676A60EEC00AF6EE005A5D
:10094000E7EE260AD7EE257A77EEE07A36EE670AEA
:100950007047B6EE076AF5EE027AEDE7B7EE000AE9
:10096000704700BF4ED747ADF6740F317CF293B499
:10097000010DD037610BB6BAABAA2A3D9999993EC1
:100980000000483F2DE9F04F2DED048BD9B003F165
:10099000FF3A0493D31E48BF131DD44C669D0291A9
:1009A000DB1023EAE373194654F8256006930133FC
:1009B000A2EBC3030193A1EB0A0316EB0A018146E4
:1009C00016D419449FEDCA7A679801311CAA002BEE
:1009D000A4BF50F8234007EE904A03F10103ACBFD7
:1009E000F8EEE77AF0EE477A8B42E2EC017AEED14C
:1009F000002EC0F20783049B44AD9C00771C1CAB07
:100A000005EB8707181909EB0401BAF1000FC0F2D2
:100A10007582DFEDB77A4B460246F3EC016A32EDA0
:100A2000017A8B42E6EE877AF7D1E5EC017ABD4296
:100A300000F10400E9D106F18043013B9B0008ADC1
:100A40001A1FAA18B3460396DFEDAB8A9FEDA98A59
:100A5000019E07924C4405EB030844AF4FEA8B0319
:100A600058AA1A44BBF1000F12ED140A18DD07A9A9
:100A700007EB8B0260EE287AB0EE407AFDEEE77A63
:100A800072ED016AF8EEE77ABA42A7EEC87A37EE5D
:100A9000A60ABDEEC77A17EE100A41F8040FE9D195
:100AA0003046059300F008FBB0EE409AB4EE000A21
:100AB00029EE000AFFF71EFCF2EE007AA0EE679A1C
:100AC000002E059BFDEEC99AF8EEE97A39EE679A99
:100AD00040F3C9800BF1FF3EC6F1080255F82E1015
:100AE00041FA02F000FA02F2891A45F82E1019EEC6
:100AF00090EA8644C6F1070209EE90EA1141002906
:100B000051DD19EE902ABBF1000F02F1010209EE4E
:100B1000902A40F312822A68002A40F06982BBF1D1
:100B2000010F40F32982AE4601205EF8042F002A0F
:100B300000F01E8200F1010EC2F58072F34545F807
:100B4000202012DD55F82E200230C2F1FF0283452D
:100B500045F82E2009DD05EB8000EA180368C3F193
:100B6000FF0340F8043B9042F8D1002E0DDD012E2A
:100B70004FF0010240F0E7810BF1FF3055F82030D3
:100B800003F07F0345F82030E7E102290BD1F7EEAF
:100B9000007A37EEC99A3046B7EE000A00F08CFAB8
:100BA00039EE409A0221B5EE409AF1EE10FA70D17A
:100BB000039B0BF1FF3E73450EDC0BF18042013AC3
:100BC00005EB8202002052F80439424540EA030056
:100BD000F9D1002840F09480039B013B55F8233065
:100BE000002B40F0D381079B4FF0010C53F80429F0
:100BF0000CF1010C002AF9D0DC440BF1010EE645A2
:100C00002FDC069A049B0EEB020103EB0B000CEBAE
:100C100002031CAA01F1804102EB8000679A0139AE
:100C200002EB810107EB8E0E02EB830B51F8043FC0
:100C300007EE903AF8EEE77ABAF1000FE0EC017AAD
:100C4000DFED2B7A09DB4B460246F3EC016A32ED0D
:100C5000017AA342E6EE877AF7D15945EEEC017AA4
:100C6000E4D1E346FAE605D10BF1FF3255F8221044
:100C7000091244E7F6EE007AB4EEE79AF1EE10FAC4
:100C800080F24681B5EE409AF1EE10FA4FF0000185
:100C90008ED0019C039EB0EE490A6042884600F067
:100CA0000BFA9FED147AB4EEC70AF1EE10FAC0F217
:100CB0008581DFED117A60EE277A2346FDEEE77A33
:100CC0000833F8EEE77A0193A7EEC70A0BF10103A8
:100CD000FDEEE77ABDEEC00A10EE102A45F82B2093
:100CE00017EE902A45F823201FE000BF984902081C
:100CF00000000000000080430000803B0000C93F6E
:100D00008846019955F82E20039E083973460191B3
:100D10005AB90EF18042013A05EB820252F80409F9
:100D2000013B08390028F9D0019101980393B7EEEF
:100D3000000A00F0C1F9039B002BC0F24A819F001A
:100D400044AAD01907F1040E1FED157A05EB0E0227
:100D5000011D72ED017AF8EEE77AAA4267EE807A19
:100D600020EE070A61ED017AF3D11FED1C6A0546FA
:100D70000DF5867C0024002EC0F2DC80A348DFED58
:100D8000A47A2946B0EE467A002203E0A24208DCAB
:100D9000B0EC017AF1EC016A01329642E7EE267A74
:100DA000F4DA043D58AA02EB8402654542ED287A44
:100DB00004F10104DFD1669A032A5AD8DFE802F071
:100DC0008C626202002B40F3018158AA3A4430A998
:100DD00012ED287A3A1D0A4431A8394451ED017ABE
:100DE00077EE876A77EEE67A77EE877AB0EE667A04
:100DF00062ED017A824261ED016AEFD1012B40F38D
:100E0000E58058AB3B4430AA13ED287A3B1D32A94C
:100E100017441A4457ED017A77EE876A77EEE67A3F
:100E200077EE877AB0EE667A62ED017A914267EDED
:100E3000016AEFD130A9DFED767A0B4433ED017A08
:100E40009A4277EE877AF9D14346002B00F0AE80C4
:100E5000DDED306A9DED317A029AF1EE677AF1EEBE
:100E6000666AB1EE477AC2ED027AC2ED006A82ED9F
:100E7000017A19EE903A03F0070059B0BDEC048BEB
:100E8000BDE8F08F3A1D30A9DFED617A0A4432EDFA
:100E9000017A8A4277EE877AF9D14246002A78D0E1
:100EA000DDED306A029AB1EE677A002B76EEE77AD2
:100EB00082ED007A0ADD31A90122B1EC017A01321A
:100EC000934277EE877AF8DA43460BB1F1EE677A10
:100ED000029BC3ED017ACCE730ABDFED4D7A9E4447
:100EE0003EED017A734577EE877AF9D143460BB12F
:100EF000F1EE677A029BC3ED007ABAE7DFED447A40
:100F0000E5EC017ABD4200F104007FF47EAD92E58C
:100F100019EE902ABBF1000F02F1010209EE902AAE
:100F2000C8BF02213FF7F7ADF7EE007A37EEC99A56
:100F3000022138E6DFED367A33E7002E1EDD00228F
:100F4000012E3FF419AE022E07D10BF1FF3055F8F8
:100F5000203003F03F0345F8203002297FF423AE10
:100F6000F7EE007A37EEC99A002A3FF41CAE12E67B
:100F7000013083457FF4D9AD002EE1DC02297FF4F6
:100F800012AEF7EE007A37EEC99A0CE64FF0010C7C
:100F900032E69DED307A029A002BC2ED007A77EEB0
:100FA000677A88DC029BC3ED017A62E70298309A87
:100FB000319BC0ED027A026043605AE7BDEEC00A81
:100FC0005B4610EE102A45F82B20AEE6DFED107AD6
:100FD0003AE7669A032A3FF64CAF01A151F822F096
:100FE000FF0F0008F90F0008F90F0008CD0F0008E7
:100FF0004FF0010E00209FE5DFED057A4DE7DFEDB4
:10100000047A73E7049B9C0015E500BFA849020819
:101010000000000010EE103A23F00043B3F1485FE7
:1010200004DAFDEEC07A17EE903A23B360EE007A50
:101030009FED155ADFED155A9FED156ADFED156A24
:101040009FED157AE7EE855A20EE275AA7EEA56A9E
:10105000E7EE866AA7EEA67A70B127EE457AF6EE3D
:10106000006AA0EEA67ADFED0D6AD7EE870AE5EEFC
:10107000260A30EE600A7047DFED096AE7EE876AFC
:10108000A5EE260A704700BFD3C92E2F342FD7B242
:101090001BEF3836010D50B98988083CABAA2A3EAF
:1010A000ABAA2ABE0020704710EE103A23F000438E
:1010B00000EE103A704700BF08B510EE103A33F05A
:1010C00000422DED028B11D0B2F1FF4F11D2B2F5DB
:1010D000000F13D3D20D0244FE2A2EDC002A1ADDA3
:1010E00023F0FF4343EAC25300EE103ABDEC028BFB
:1010F00008BDBDEC028B30EE000A08BD1D4BDFEDD4
:101100001E7A984220EE270A22DB10EE103AC3F333
:10111000C752193ADFE712F1160F1EDA4CF25033BC
:1011200098420ADC9FED158AF0EE400AB0EE480ABC
:1011300000F02AF820EE080AD8E79FED118AF0EEB9
:10114000400AB0EE480A00F01FF820EE080ACDE78A
:10115000DFED0A0A20EE200AC8E7193223F0FF4328
:1011600043EAC253DFED077A00EE103A20EE270A79
:10117000BCE700BFB03CFFFF0000004C6042A20D86
:10118000CAF249710000003310EE103A10EE902AB6
:1011900023F0004302F00042134300EE103A704780
:1011A00008B5062001F064FC012008F0C7FD00BF6F
:1011B00000B50A4C2668054685B01C46F06852B159
:1011C000074B02928DE80A0022462B46054900F0A3
:1011D00027F8FFF7E5FF044B1A46F2E7040000206A
:1011E00054760208647602089C67020808B5134624
:1011F0000022FFF7DDFF00BF014B1868704700BFFA
:10120000040000200CB400B583B004AB53F8042BE9
:10121000019300F01DFA03B05DF804EB02B07047D3
:101220000EB410B583B005AB064C53F8042B0193F4
:101230000146206800F00CFA03B0BDE8104003B08E
:10124000704700BF0400002070B50F4E0F4D761B95
:10125000B61018BF002405D0013455F8043B984758
:10126000A642F9D10A4E0B4D761B23F067F9B61052
:1012700018BF002406D0013455F8043B9847A64215
:10128000F9D170BD70BD00BF1C8002081C8002082F
:10129000348002081C800208024B0146186800F0E6
:1012A0003BB900BF04000020024B0146186800F063
:1012B000EBB800BF04000020844641EA000313F0AD
:1012C00003036DD1403A41D351F8043B40F8043B4D
:1012D00051F8043B40F8043B51F8043B40F8043B10
:1012E00051F8043B40F8043B51F8043B40F8043B00
:1012F00051F8043B40F8043B51F8043B40F8043BF0
:1013000051F8043B40F8043B51F8043B40F8043BDF
:1013100051F8043B40F8043B51F8043B40F8043BCF
:1013200051F8043B40F8043B51F8043B40F8043BBF
:1013300051F8043B40F8043B51F8043B40F8043BAF
:1013400051F8043B40F8043B403ABDD2303211D34F
:1013500051F8043B40F8043B51F8043B40F8043B8F
:1013600051F8043B40F8043B51F8043B40F8043B7F
:10137000103AEDD20C3205D351F8043B40F8043B4F
:10138000043AF9D2043208D0D2071CBF11F8013B4D
:1013900000F8013B01D30B8803806046704700BF13
:1013A000082A13D38B078DD010F003038AD0C3F122
:1013B0000403D21ADB071CBF11F8013B00F8013B04
:1013C00080D331F8023B20F8023B7BE7043AD9D3C3
:1013D000013A11F8013B00F8013BF9D20B78037098
:1013E0004B7843708B7883706046704770B4860783
:1013F00046D0541E002A41D0CAB2034602E014F17E
:10140000FF343BD303F8012B9D07F8D1032C2ED9D1
:10141000CDB245EA05250F2C45EA054519D903F15A
:1014200010022646103E0F2E42F8105C42F80C5C6B
:1014300042F8085C42F8045C02F11002F2D8A4F110
:10144000100222F00F0204F00F041032032C134498
:101450000DD91E462246043A032A46F8045BFAD800
:10146000221F22F003020432134404F003042CB1BF
:10147000C9B21C4403F8011B9C42FBD170BC7047ED
:1014800014460346C2E700BF91B151F8043C043949
:10149000002BB8BFC9181F4B1A68FAB18A4230B482
:1014A0000AD908680C18A24226D04A60196030BCDC
:1014B00070478B4203D81A465368002BF9D1146841
:1014C00015198D420DD006D808680C189C4219D009
:1014D0004B605160EBE70C230360E8E74A6019605A
:1014E000704709680C44111999421460DFD10ACB86
:1014F0000C4453601460DAE7146852684A60204470
:101500000860D3E71C685B684B602044086051604A
:10151000CDE700BFBC04002070B5CC1C24F0030450
:1015200008340C2C38BF0C24002C06463BDBA142AF
:1015300039D8274D296851B10A68121B04D436E006
:101540001A68121B1AD519464B68002BF8D1696826
:10155000002937D02146304601F0DCF9431C22D067
:10156000C31C23F00305A84205D0291A304601F018
:10157000D1F9013017D02C602B4604E00B2A0DD98D
:101580001A6013441C6003F10B0020F007001A1DC1
:10159000821A02D05142995070BD70BD8B420ED05C
:1015A0005A684A60EFE70C233360002070BD0B2AB5
:1015B00003D84A680B462A60E5E70B46E0E70A468F
:1015C0000B46F8E7304601F0A5F96860C2E700BFB6
:1015D000BC0400209368013B002B10B4936008DB2F
:1015E000CCB21368581C1060197020465DF8044B8B
:1015F00070479469A34202DBCCB20A2CF1D15DF8AA
:10160000044B02F077BE00BF93B1F8B514460F4605
:101610000646D51801E0AC4208D03A4614F8011B42
:101620003046FFF7D7FF431CF5D1F8BD0020F8BDC9
:1016300000207047936810B5144613B953601846DC
:1016400010BD04F069F90023A360636010BD00BF02
:101650002DE9F04F9DB0894614460393824618B198
:101660008369002B00F00A818A4B994500F00C81B8
:10167000894B994500F00B81884B994508BFDAF8F2
:101680000C90B9F80C30180740F1EE80D9F8103002
:10169000002B00F0E98030238DF82A302378804E2B
:1016A0000021202209918DF829200127002B00F02C
:1016B0008480252B254603D117E0252B00F085805B
:1016C00015F8013F002BF8D1B5EB040B75D022467D
:1016D0005B4649465046FFF797FF01306DD0099BA6
:1016E0002A785B440993002A67D000234FF0FF3229
:1016F00001350493079306938DF853301A9305929E
:1017000004E0049A07FA03F31343049329780522AB
:10171000304604F045FF2C46831B01350028F0D1EC
:10172000049BD90644BF20228DF8532021781A0744
:1017300044BF2B228DF853202A2969D0A1F1300211
:10174000092A0BD8079B14F8011F03EB830302EB54
:101750004303A1F13002092AF5D907932E293FD07E
:10176000504D0322284604F01BFF38B1049B401B58
:10177000402202FA00F003430134049321784A48DE
:101780008DF828100622013404F00AFF002849D001
:10179000464BF3B103AB00934A46454B04A9504670
:1017A00000F060F98046B8F1FF3F06D0099B434442
:1017B00009932378002B7FF47CAFB9F80C305B06DB
:1017C00059D409981DB0BDE8F08FB5EB040B8CD04F
:1017D0007DE7039B073323F0070308330393E5E713
:1017E00061782A2904F1010026D0A1F130020023FA
:1017F000092A05930446B3D814F8011F03EB8303A9
:1018000002EB4303A1F13002092AF5D90593A7E7BA
:10181000039A11680432002903921FDB0791617853
:1018200001349BE703AB00934A46214B04A9504681
:1018300000F060FC8046B6E7039B1A680592002A18
:1018400003F104030393B8BF4FF0FF3204F1020326
:10185000AEBFA178A17805921C4681E7494243F0CA
:10186000020307910493DAE74946504602F0BAFDB5
:1018700000283FF410AF4FF0FF30A3E704F02CF83E
:10188000044B99457FF4F4AEDAF80490F9E6DAF8FF
:101890000890F6E66C4B02084C4B02082C4B0208F1
:1018A00098760208A0760208A4760208651A000855
:1018B0000916000810B4044C13460A460146206875
:1018C0005DF8044BFFF7C4BE040000202DE9F0478B
:1018D00057EC106B84B0002F0D46924619460D9CB4
:1018E00060DB00230B70662C45D0462C43D024F0DF
:1018F0002003452B2BD003AA02AB019200932A466A
:101900000C9B022147EC106B02F08EFE672C804688
:101910002AD11AF0010F2CD0454430463946002216
:10192000002306F04FFF00283AD1039B9D4206D9C1
:1019300030215A1C03921970039B9D42F9D80E9ACC
:10194000A3EB08034046136004B0BDE8F08703A989
:1019500002AB0135019100932A460C9B022147EC12
:10196000106B02F061FE8046472CD5D11AF0010FB2
:10197000D2D1039BE3E703AA02AB019200932A466C
:101980000C9B032147EC106B02F04EFE0378302BCA
:10199000804600EB05090DD00C9B1D684D44BCE74B
:1019A0002B46CCE707F100434FF02D0E1F4681F880
:1019B00000E098E7002200233046394606F002FF97
:1019C0000028E9D10C9BC5F101051D604D44A4E739
:1019D000F0B40029BABF49422D232B23092982B034
:1019E0000270437000F102042EDD0DF107052E4652
:1019F0001B4F00E0164687FB0123CA17C2EBA30268
:101A000002EB8203A1EB430101F1300311460929E6
:101A100006F8013C06F1FF32ECDC3031B31EC9B2EE
:101A20009D4202F8011C19D91346264601E013F81D
:101A3000011B06F8011B9D42F9D16B1C9A1A224426
:101A4000101A02B0F0BC704722463031302302F841
:101A5000023B6170101A02B0F0BC70472246F9E7F1
:101A6000676666662DE9F04F8DB00C4616461F4638
:101A70000546DDF8588004F0F7FC03680693184625
:101A800001F01EFBD4F800B0079000231BF4807F08
:101A900094F818A00A9300F0D380D8F8001007310A
:101AA00021F00701D1E900230831C8F80010CDE981
:101AB0000423C4E91223DDE9042323F000499046FE
:101AC000104649464FF0FF32B34B06F0ADFE0028FA
:101AD0006FD1404649464FF0FF32AF4B06F086FECD
:101AE000002866D1DDE904010022002306F074FE1F
:101AF000002840F01F81A948A9492BF00402226068
:101B000002460323BAF1470F98BF0A4604922361A5
:101B10004FF00008009733460BAA2146284600F0F4
:101B20004FFA013040D02368590540F1FB80BAF1EB
:101B3000650F40F2948000220023D4E9120106F0E0
:101B400041FE002840F0B881099B002B40F3FD8145
:101B50000A9BD4F858904B45A8BF4B46002B9A4699
:101B600007DD049A31462846B84701301CD0D4F826
:101B700058902AEAEA7AA9EB0A03002B40F356812F
:101B800004F11A0B4FF0000805E0A36DA3EB0A0265
:101B9000424540F34A8101235A4631462846B84718
:101BA000013008F10108F0D14FF0FF300DB0BDE871
:101BB000F08FDDE9040102460B4606F035FE0028F1
:101BC00040F0DB806168481C00F00A81BAF1670FC1
:101BD00000F0A281BAF1470F00F0B0804BF48062B0
:101BE000002322600AA8039309AB02900093CDF86A
:101BF00004A00DF123039DED040B2846FFF766FEBC
:101C00000490BAF1650F099B40F2D880BAF1660FD3
:101C100000F088810A9A9A4200F3FF8022682361CB
:101C2000D00701D55A1C2261A3654FF000089DF82A
:101C30002330002B3FF46EAF2D2384F8433069E747
:101C4000D8F80030073323F0070393ED007B083307
:101C5000C8F800308DED047B84ED127B2BE70A9AE7
:101C6000012A62DD0123049A31462846B847013033
:101C70009AD0079B069A31462846B847013093D040
:101C800000230022D4E9120106F09CFD0A9BA0B1BA
:101C9000012B1BDD04F11A0A4FF0000903E00A9B37
:101CA000013B4B4512DD0123524631462846B847D9
:101CB000013009F10109F2D176E7049A013B0132C2
:101CC00031462846B84701303FF46EAF434604F131
:101CD000500231462846B84701303FF465AF2368CB
:101CE000E06813F0020F0B9B16D0C21A002A13DD16
:101CF00004F119094FF0000804E0E0680B9BC21AD8
:101D0000424509DD01234A4631462846B84701309D
:101D100008F10108F1D147E79842B8BF18460DB065
:101D2000BDE8F08F049A2369D3E7DB079AD4049ABD
:101D30000123C5E72D2384F84330DCE6002900F0B9
:101D4000EE804BF48062002322600AA8039309AB63
:101D500002900093CDF804A00DF123039DED040B38
:101D60002846FFF7B3FD0490099BD91C1EDB62686F
:101D700093421BDC4FF0670A4CE70A490A4A2BF0F2
:101D800004032360BAF1470F98BF1146032304915F
:101D900023614FF00008BDE6FFFFEF7FB076020839
:101DA000AC760208B8760208B4760208AAF1020AF4
:101DB0005FFA8AFABAF1650F3FF628AF013B194680
:101DC000524604F150000993FFF702FE0A9A831865
:101DD000012A8046236140F3B3800133236126E763
:101DE000062161604BF48062002322600AA80393FD
:101DF00009AB02900093CDF804A00DF123039DEDF3
:101E0000040B2846FFF762FDBAF1670F0490ABD0D0
:101E1000BAF1470F7FF4F5AEA6E7002BD4BFC3F1AC
:101E2000020101210A442261FEE69946099B0A9AB1
:101E3000934236DB2168C90733D4A2EB0908D31AD1
:101E40009845A8BF9846B8F1000F0CDD049B4B44A1
:101E50001A46314643462846B84701303FF4A4AEFF
:101E60000A9B099A9B1A28EAE879A3EB0903002B3D
:101E70007FF735AF04F11A0A4FF0000807E00A9B1C
:101E8000099A9B1AA3EB090343457FF728AF012367
:101E9000524631462846B847013008F10108EED1D4
:101EA00082E6079B069A31462846B84701303FF440
:101EB0007BAE0A9A099BC0E70123404A3146284677
:101EC000B84701303FF470AE099A0A9B9A4203DB8F
:101ED0002368DA077FF504AF079B069A3146284648
:101EE000B84701303FF460AE0A9B012B7FF7F7AE95
:101EF00004F11A094FF0000804E00A9B013B434536
:101F00007FF7EDAE01234A4631462846B8470130F7
:101F100008F10108F1D147E600297FF412AF012151
:101F200061605FE7002B62683DDD23611AB1013219
:101F30001A44226178E62168C8077FF575AEF6E796
:101F40002268D2077FF573AE47E701231B4A31466B
:101F50002846B84701303FF427AE099B2BB90A9BAE
:101F60001BB92368D8077FF5BBAE079B069A31469D
:101F70002846B84701303FF417AE099B002B1ADA08
:101F800004F11A094FF0000803E0099B5B42434546
:101F900011DD01234A4631462846B847013008F191
:101FA0000108F2D100E622B92168C90701D4012253
:101FB00039E7023237E7049A0A9B8AE6CC5B0208CB
:101FC0002DE9F0470C4691460A698968DDF82080C2
:101FD0008A42B8BF0A46C9F8002094F84310064662
:101FE0001F4611B10132C9F80020236899065DD55A
:101FF000D9F800200232C9F80020236813F0060F38
:1020000019461DD1E1688A1A002AD8BF194617DD82
:1020100004F1190A002505E0E368D9F800209B1AAD
:10202000AB420CDD0123524639463046C0470130F1
:1020300005F10105F0D14FF0FF30BDE8F0872168D0
:1020400094F84330003318BF01238A060AD5E118FB
:102050005A1C302081F84300224494F8451082F83D
:102060004310023304F1430239463046C047013081
:10207000E1D0236803F00603042B29D0A36822696A
:102080009342C8BF4FF0000930DD9B1A99441A34BF
:10209000002501E04D4529D001232246394630462E
:1020A000C047013005F10105F4D1C4E713F0060F74
:1020B00008D1E168D9F800208A1A002AD8BF194649
:1020C000A6DCBDE794F84330003318BF0123C9E70D
:1020D000D9F80010E068A3682269A0EB01099342D7
:1020E00029EAE979D1DCB9F1000FD0D10020BDE8AF
:1020F000F08700BF2DE9F0430C46097E85B06E29BC
:10210000064617460C98984604F1430C55D00FD854
:10211000632900F01B8100F2D68000295CD0582989
:1021200040F0E88084F845102268DFF860E213E0B0
:10213000732900F0FD8000F289806F2900F0E480AF
:10214000702940F0D780226842F020022260782374
:10215000DFF83CE284F845300368150603F104011A
:1021600000F1FF8055064BBF1B881B6801600160B2
:10217000D00744BF42F020022260002B40F095803F
:10218000226822F0200222601021002284F84320DD
:102190006068A0600028C0F28D80226822F00402EE
:1021A0002260002B67D1002840F086806546082910
:1021B0006FD0ACEB0503236111E023681A0600F130
:1021C000D38013F0400F0368626903F104010160DA
:1021D0001B6814BF1A801A60002365462361CDF87E
:1021E00000803B4603AA21463046FFF7E9FE013056
:1021F00021D02A46236939463046C04701301AD0DB
:102200002368E06813F0020F039B19D0C21A002A5A
:1022100016DD04F11909002504E0E068039BC21AE9
:10222000AA420DDD01234A4639463046C0470130F7
:1022300005F10105F1D14FF0FF3005B0BDE8F083A5
:102240009842B8BF184605B0BDE8F08375295BD049
:1022500078294FD122687AE76168A1602D20002992
:10226000C3F1000384F8430021DB22F00402DFF80D
:102270001CE122600A216546B3FBF1F201FB12303A
:1022800013461EF8002005F8012D002BF4D1082973
:102290008FD12368D9078CD5626823699A4288DC7C
:1022A000302305F8013C013D83E710216DE7DFF89D
:1022B000DCE00A21002BDED19EF8003084F84230A9
:1022C00004F1420573E7642901D0692912D122681B
:1022D0000368150603F1040152D455064BBFB3F948
:1022E00000301B6801600160002BB5DBDFF89CE06B
:1022F0000A214DE7012384F84210236104F14205CD
:10230000002384F843306AE723681A0633D413F0B5
:10231000400F036803F1040215BF1B881B680260AD
:1023200002606F2914BF0A210821DFF860E02CE762
:1023300003686268191D01601D680021284604F0C9
:102340002FF900B3401B60602061D9E703681A6869
:10235000191D0123016004F1420584F84220236124
:10236000CEE701601B6803E703686269191D01601D
:102370001B681A6030E703681A1D02601B68D0E70B
:1023800001601B68B0E76068DEE700BF084E020826
:10239000BC7602082DE9F04F0746886887B00C46E6
:1023A000411EB1F5AE7F1646059340F2A9816FF448
:1023B000AE7140F25D1342180392A3601846236881
:1023C000A04643F4F06348F81C3B4FF0000A454632
:1023D000CDF80080CDF810A0B846CDF808A0D146C1
:1023E000D346574633681978A1F12B034E2B6ED88C
:1023F000DFE813F001016D000101F8006D004F00EE
:102400005300530053005300530053005300530034
:1024100053006D006D006D006D006D006D006D006E
:1024200074016D006D006D00590152016D006D0069
:1024300029016D006D006D006D0017016D006D00CC
:102440006D006D006D0010016D006D006D006D0080
:1024500009016D006D006D006D006D006D006D0077
:1024600074016D006D006D00590152016D006D0029
:1024700029016D006D006D006D0017016D006D008C
:102480006D006D006D0010016D006D006D006D0040
:1024900009012368DA0500F1468117EB0A0F16D10E
:1024A000236823F4C07323602970A0680135736822
:1024B0002169013B01380131002BA060216173606B
:1024C00040F3118133680133336000288AD13A46E2
:1024D0004746DDF80080B9F1000F40F03581013A40
:1024E000012A40F2C5800AF1FF33062B1AD8BAF14F
:1024F000020F40F22E81BAF1030F13D0AAF1040AA1
:102500005FFA8AFA6FEA0A0AAA44D4F87C3115F80D
:10251000011D3246384698472369554503F1FF337C
:102520002361F2D12368D9051A4620D55A0500F156
:102530002C81236915F8011C013B6529236105F1F4
:10254000FF3A0DD045290BD0D4F87C3132463846BD
:102550009847236915F8021C013B2361A5F1020A83
:102560003246D4F87C31384698472268554612F0F6
:10257000100640F034812E70236803F4C063B3F575
:10258000806F00F01381029B002B40F02D814146AB
:102590003846002200F070FE2568AB0700F1178175
:1025A00015F0040540F01381059A17683B1D136070
:1025B00051EC100B53EC102B8DED000B06F034F9A1
:1025C0003F689DED000B002840F0248151EC100B7A
:1025D00006F088F93860E36830460133E36007B0FD
:1025E000BDE8F08F236898057FF571AF23F4207361
:1025F0002360CB4658E723681A067FF568AF23F0BF
:102600008003236050E7BAF1070F7FF460AF4FF00B
:10261000080A49E7BAF1060F7FF459AF4FF0070AED
:1026200042E7002F7BD1B9F1000F00F0A280BAF190
:10263000010F03D0BAF1040F7FF449AF0AF1010A88
:102640005FFA8AFA30E7BAF1000F5CD1B9F1000FF6
:1026500076D1236803F4E060B0F5E06F00F0D48039
:102660003A46013A012A4746DDF800803FF65BAF63
:10267000A8450CD2D4F87C3115F8011D32463846F5
:1026800098472369A84503F1FF332361F2D101265E
:10269000304607B0BDE8F08FBAF1020F7FF417AFF4
:1026A0004FF0030A00E7236803F4A060B0F5806FE1
:1026B00006D05A057FF50BAFB9F1000F00F09F80EF
:1026C000980503D4A9EB0B020292049523F4F0635E
:1026D00043F4C07323604FF00009E5E6012F7FF457
:1026E000F6AE0227E0E6D4F88031314640469847FE
:1026F00000287FF4ECAEA06800287FF473AEE6E615
:10270000002303935BE6BAF1030F97D0BAF1050FEC
:102710007FF4DDAE0AF1010A5FFA8AFAC4E6022FFD
:1027200085D10327C0E623F080032360039B09F1D2
:102730000109002B3FF4BBAE013B03930130B6E629
:102740003A464746DDF80080236823F4807323600F
:10275000C5E6A8459BD2D4F87C3115F8011D324658
:10276000384698472369A84503F1FF332361F2D126
:102770008DE7236803F4E060B0F5E06F7FF457AFB6
:1027800023F4F063236001278EE645457FF67FAF93
:10279000D4F87C3115F8011D324638469847236934
:1027A000A84503F1FF332361F2D170E7A9EB0B03D6
:1027B0005A42002B3FF4EBAE04F26F139D4228BF48
:1027C00004F5B7752846164900F040FADFE605998A
:1027D0000B681A1D0A601B6883ED000BFBE60026E0
:1027E000304607B0BDE8F08F049D29460A233246E3
:1027F0000131384601F0EAFC029BC21ADCE73A4696
:102800004746DDF800806AE623F4F06323604FF06A
:10281000010A49E6284600F08FF887ED000ADAE65B
:10282000D07602082DE9F0410E46804600283ED0C1
:102830008369002B39D084682F4B9C4243D02F4BA7
:102840009C4256D02E4B9C4208BFD8F80C40A3891E
:102850001B073DD52369002B3AD0013EA36816F82B
:10286000015F013BA360B5B1002B04DB23685A1C58
:1028700022601D70F2E7A769BB4222462946404606
:1028800001DB0A2DF2D101F035FD0130E6D14FF028
:10289000FF30BDE8F081002B21DB23680A22591CA0
:1028A00021601A701046BDE8F08103F015F8D8F8E1
:1028B0001830D8F80840002BBED1404603F00CF881
:1028C0000D4B9C42BBD1D8F80440A3891B07C1D44F
:1028D0002146404601F086FD0028BED0D7E72246BB
:1028E00040460A2101F006FD0130D0D00A20BDE8A3
:1028F000F081D8F80840AAE76C4B02084C4B02085C
:102900002C4B0208024B01461868FFF78BBF00BF33
:102910000400002038B5074C002305460846236014
:1029200011F084F9431C00D038BD2368002BFBD084
:102930002B6038BD043400209FED010A704700BFB2
:102940000000C07F10B580210446FEF7E5FD6064FD
:1029500040B1031F00227C3043F8042F8342FBD197
:10296000002010BD4FF0FF3010BD00BF436C0BB115
:1029700000207047E6E700BF1F2909D810B5446C56
:1029800084B054B154F8210044F8212004B010BDA3
:10299000162202604FF0FF307047039002920191BF
:1029A000FFF7D0FF20B9039B029A5C6C0199E9E71D
:1029B0004FF0FF30EAE700BF1F2927D820B5426C4F
:1029C00082B00546AAB152F8213093B1012B0ED046
:1029D000581C07D00025084642F821509847284641
:1029E00002B020BD162301202B6002B020BD0020C4
:1029F000F6E72846019100F071F801990A46014670
:102A0000284602B0BDE8204000F054B81623036009
:102A10004FF0FF30704700BF1F2926D820B5436C08
:102A200082B00546BBB153F8212003EB810382B18C
:102A3000501C0BD0012A06D0002508461D60904787
:102A4000284602B020BD032002B020BD022002B003
:102A500020BD0120F5E70191FFF774FF10B96B6C01
:102A60000199E0E74FF0FF30EBE74FF0FF307047A0
:102A7000024B01461868FFF79FBF00BF040000200B
:102A8000024B0A4601461868FFF776BF0400002093
:102A9000034B1868436C0BB10020704752E700BF2E
:102AA00004000020024B01461868FFF7B5BF00BFC5
:102AB0000400002038B50B46074C05461146184661
:102AC0000023236007F022F9431C00D038BD23689F
:102AD000002BFBD02B6038BD0434002007F006B972
:102AE00008B4F0B5141E9CB005463BDB4FF40273EE
:102AF00002910691ADF8143022AE16D0013C219A15
:102B0000049433464FF6FF7702A907940196ADF877
:102B1000167004F0B5FB421C1ADB029B00221A70EF
:102B20001CB0BDE8F04001B0704733464FF6FF7768
:102B3000219A049402A907940196ADF8167004F046
:102B40009FFB431C07DB1CB0BDE8F04001B07047A1
:102B50008B232B60E1E78B232B601CB0BDE8F0409A
:102B600001B070478B2202604FF0FF30EBE700BFEF
:102B70000CB4F0B5234B0C1E9DB01D683DDB4FF42B
:102B8000027302900690ADF8143023AE17D0013CCA
:102B9000229A049433464FF6FF7702A928460794F9
:102BA0000196ADF8167004F06BFB421C1BDB029B18
:102BB00000221A701DB0BDE8F04002B070473346E5
:102BC0004FF6FF77229A049402A9284607940196AB
:102BD000ADF8167004F054FB431C07DB1DB0BDE8D4
:102BE000F04002B070478B232B60E0E78B232B6013
:102BF0001DB0BDE8F04002B070478B232B604FF052
:102C0000FF30EBE7040000200CB4F0B59DB022AC1F
:102C1000029154F8042B069123466FF000454FF4BF
:102C200002774FF6FF7602A90194ADF8147004956F
:102C30000795ADF8166004F023FB029B00221A7082
:102C40001DB0BDE8F04002B0704700BF0EB4F0B553
:102C50009CB021AB0F4953F8042B019305466FF04C
:102C60000044086802954FF402774FF6FF7602A9F8
:102C70000695ADF8147004940794ADF8166004F04E
:102C8000FFFA029B00221A701CB0BDE8F04003B0AE
:102C9000704700BF040000200EB4F0B59CB021AC1A
:102CA0004FF4017254F8046BADF8142002900690B2
:102CB00000F006FA0C4B0194054632460B4F18689B
:102CC000039523464FF6FF76002402A907950B973C
:102CD0000F941494ADF8166004F046FC1CB0BDE8E7
:102CE000F04003B0704700BF04000020692D0008C9
:102CF0000CB4F0B59DB022AC06464FF40173084603
:102D000054F8047B02910691ADF8143000F0D8F924
:102D10003A4605462346019430460024084F039561
:102D20004FF6FF7602A907950B970F941494ADF810
:102D3000166004F019FC1DB0BDE8F04002B0704709
:102D4000692D000810B50C46B1F90E1004F038FFDB
:102D5000002803DB636D0344636510BDA38923F47E
:102D60008053A38110BD00BF002070472DE9F041C2
:102D70001646B1F90C201F46D3050C46054607D56B
:102D800000220223B1F90E1003F07EFBB4F90C20EF
:102D9000B4F90E1022F48052A2813B4632462846F6
:102DA000BDE8F04101F008BB10B50C46B1F90E10BA
:102DB00003F06AFBA389421C0EBF23F4805343F443
:102DC00080536065A38110BDB1F90E1001F084BB82
:102DD00000000000000000000000000000000000F3
:102DE000A2EB0300704700BF02780B78012A28BFCE
:102DF0009A42F5D16DE9044540EA0104CDE9026744
:102E00006FF0000C4FEA447212B380EA010414F030
:102E1000070F6AD100F0070420F0070004F0030553
:102E200021F007014FEAC505F0E8042314F0040F70
:102E3000F1E804670CFA05F462EA040266EA0406A3
:102E40000AD063EA0403624667EA0407664603E0C1
:102E5000F0E80423F1E8046782FA4CF582EA0604FC
:102E6000A4FA8CF46CBB83FA4CF583EA0705A5FA47
:102E70008CF595B950E9022351E9026782FA4CF5C5
:102E800082EA0604A4FA8CF483FA4CF583EA070577
:102E9000A5FA8CF52543DBD09CB92DBAB5FA85F49B
:102EA00024F0070427FA04F1DDE9026723FA04F3AA
:102EB00003F0FF0001F0FF01FDE80445A0EB010075
:102EC000704724BAB4FA84F424F0070426FA04F113
:102ED000DDE9026722FA04F202F0FF0001F0FF01CF
:102EE000FDE80445A0EB0100704714F0030F3CD14E
:102EF00010F0030428D150F8082B51F8083B82FA4F
:102F00004CF582EA0305A5FA8CF55DB950F8042C5E
:102F100051F8043C82FA4CF582EA0305A5FA8CF5D7
:102F2000002DE8D02DBAB5FA85F424F0070423FA71
:102F300004F122FA04F202F0FF0001F0FF01FDE8C3
:102F40000445A0EB010070474FEAC40420F00300E1
:102F500050F8082B21F0030151F8083B0CFA04F457
:102F600062EA040263EA0403C9E710F003041AD01A
:102F7000A1EB040120F00300E40750F8042B06D075
:102F80000FD28B785FFAA2F4E41A06D12BB1CB787A
:102F90005FFAB2F4E41A00D11BB920465DF8104B79
:102FA000704701F1040150F8042BCC0721F0030114
:102FB00051F8043B48D824D222F07F4482FA4CF5E1
:102FC00094EA1325A5FA8CF50AD165B951F8043BAA
:102FD00084EA0204B4EB036F0ED150F8042BEBE744
:102FE0004FEA132355E035F07F454DD10878FDE8D1
:102FF0000445C0F1000070474FEA126203F0FF037E
:1030000047E002EA1C4482FA4CF594EA1345A5FA1B
:103010008CF50AD165B951F8043B84EA0204B4EB9B
:10302000034F0CD150F8042BEBE74FEA134330E089
:1030300015EA1C4528D10B884FEA124229E04FEAD5
:10304000124203EA1C4324E002F0FF0482FA4CF52A
:1030500094EA1365A5FA8CF50AD165B951F8043BD9
:1030600084EA0204B4EB032F09D150F8042BEBE7F8
:103070004FEA13630DE015F0FF0F05D10B684FEA1F
:10308000122223F07F4304E04FF00000FDE80445E6
:10309000704712BA1BBA82FA4CF482EA0304A4FA0B
:1030A0008CF5B5FA85F402FA04F203FA04F34FEA58
:1030B0001260FDE80445A0EB1360704700000000BB
:1030C00090F800F06DE9024520F007016FF0000C68
:1030D00010F0070491F820F040F049804FF0000410
:1030E0006FF00700D1E9002391F840F000F10800EB
:1030F00082FA4CF2A4FA8CF283FA4CF3A2FA8CF323
:103100004BBBD1E9022382FA4CF200F10800A4FA89
:103110008CF283FA4CF3A2FA8CF3E3B9D1E90423DD
:1031200082FA4CF200F10800A4FA8CF283FA4CF314
:10313000A2FA8CF37BB9D1E9062301F1200182FACE
:103140004CF200F10800A4FA8CF283FA4CF3A2FAD4
:103150008CF3002BC6D0002A04BF04301A4612BAE2
:10316000B2FA82F2FDE8024500EBD2007047D1E9E5
:10317000002304F00305C4F100004FEAC50514F074
:10318000040F91F840F00CFA05F562EA05021CBF45
:1031900063EA050362464FF00004A9E7002A41D024
:1031A00040EA010313F00303F0B425D1032A23D925
:1031B00004680D68AC421FD1043A38D0A4F101353F
:1031C00025EA040414F0803F2ED1043004310FE0CE
:1031D00050F8043B0E68A3F10134B34224EA03041F
:1031E00001F1040126D1043A21D014F0803F1BD113
:1031F000032A07460D46EBD805780C78AC4202F15D
:10320000FF331AD183B114B90EE06BB17AB110F863
:10321000012F11F8014FA24203F1FF33F5D0101B2B
:10322000F0BC7047104670470020F0BC7047104655
:10323000F0BC704729463846DEE72A46EFE700BF74
:1032400070B504460D4645EC104B164603F074FD70
:1032500051EC100B7EB1C5F30A53C3F16B03002B85
:1032600009DD1B0503F17F55002405F540152246B5
:103270002B4605F03FF870BD2DE9F04F9FB00E468C
:10328000002106921A9100220021CDE9041219961C
:10329000834633461A4613F8017B2D2F00F2EE8049
:1032A000DFE817F02E00EC00EC00EC00EC00EC0086
:1032B000EC00EC00EC00DB00DB00DB00DB00DB0003
:1032C000EC00EC00EC00EC00EC00EC00EC00EC009E
:1032D000EC00EC00EC00EC00EC00EC00EC00EC008E
:1032E000EC00EC00DB00EC00EC00EC00EC00EC008F
:1032F000EC00EC00EC00EC00EC004600EC00D80028
:103300009FEDB37B069B8DED027B63B1002307939A
:10331000069B1E60079B33B1DDE90201024601F105
:103320000043CDE902239DED020B1FB0BDE8F08FF5
:103330000023079302F10109CDF864905778002F1C
:10334000DED0302F00F0A08000230893A7F13003D7
:103350004FF00008092B454644464B4619D8082C27
:10336000C8BF08EB880805EB850203F1010307EBF2
:1033700042021993C4BF07EB4807A7F130081F7832
:10338000D8BFA2F13005A7F13002092A04F10104E7
:10339000E5D95846029303F067F8D0F800A05846E4
:1033A00003F062F80068FFF78BFE029B024651466D
:1033B0001846FFF7F3FE8246002800F0E380002065
:1033C00084468646A246652F72D0452F70D00023D2
:1033D000BAF1000F43D05646102EA3EB0C0328463B
:1033E000A8BF1026029304F00FFF002C08BF54461C
:1033F000092ECDE9040113DD774B03EBC60353E936
:10340000122304F077FFCDE90401404604F0FCFEEE
:1034100002460B46DDE9040104F0BAFDCDE90401E2
:10342000BAF10F0F00F3E080029B002B00F0A580A3
:1034300040F34785029B162B00F3A284664901EBFB
:10344000C301D1E90001DDE9042304F053FFCDE914
:1034500002010DE0012307936CE719931AE718B9ED
:10346000089B002B00F0AE829FED597B8DED027B17
:10347000069B002B3FF44EAF199E49E70023302FE7
:10348000914607937FF460AF99F80130582B00F014
:103490005483782B00F051834B46013319931F78E6
:1034A000302FFAD09946002FDED0012308934DE744
:1034B000BAF1000F00F00982199E731C19937778F6
:1034C0002B2F00F076822D2F00F06D8200230293C7
:1034D000A7F13003092B00F22382302F05D1199B6D
:1034E000013319931F78302FFAD0A7F13103082B3D
:1034F0003FF66DAF199B099319465A1C1992A7F113
:1035000030034F78A7F1300109290CD80132199204
:1035100003EB830307EB43031778A7F13001092975
:10352000A3F13003F2D90999521A082A00F31F8433
:1035300044F61F629342A8BF1346029A002A3FF442
:1035400047AF5B42BAF1000F7FF445AF87E719A898
:10355000224902F07FFE00283FF4D2AE199B204999
:10356000013B19A8199302F075FE10B9199B01339C
:1035700019931C4B0593002304939DED047B8DED63
:10358000027B75E7584602F06FFF0068FFF798FD71
:10359000199A13181993175C002C40F0F281302F00
:1035A000204606D1013319931F78302F00F1010016
:1035B000F8D0A7F13103082B40F27684652F4FF045
:1035C000000C00F08081E2464FF0010EFDE600BFE6
:1035D0000000000000000000A04C0208D87602089D
:1035E000DC7602080000F07F029AAAEB06039E1820
:1035F000002E40F3748316F00F030AD0BC4901EB90
:10360000C301D1E90001DDE9042304F073FECDE933
:10361000040136F00F0640F02D8200230893009538
:10362000534622464946584603F0FCF8002800F06D
:10363000CB82029A0F904FF00008002AC2F10003DB
:10364000A8BF43460A9322EAE2730993C1460F9C3E
:103650005846616803F058F88246002800F0E3827B
:1036600022699DED047B0232920004F10C010C30C2
:103670008DED027BFDF720FE9DED020B1CAA1BA920
:10368000584603F0E5FB1A90002800F0478401211A
:10369000584603F065F98146002800F0C4821B9B60
:1036A000002BC0F231810A9A099DD61808991C9CFA
:1036B000904A5B1A2344013B9342C4F1360480F2E2
:1036C000E980D21A1F2AA4EB020400F3218101230E
:1036D00093400E9300230C932544089B3444A64248
:1036E0001D443346A8BF2346AB42A8BF2B46002B40
:1036F00002DDE41AED1AF61A0A9BB3B149461A46DE
:10370000584603F0C9F98146002800F08C82014632
:103710001A9A584603F02EF90746002800F08382D3
:103720001A99584603F024F81A97002C08DD22460F
:103730001A99584603F00CFA1A90002800F0EE830C
:10374000099B43B15146099A584603F0A5F98246B0
:10375000002800F06882002D08DD51462A465846B0
:1037600003F0F6F98246002800F05D82002E08DDA5
:1037700049463246584603F0EBF98146002800F0EE
:10378000528252461A99584603F052FA804600284F
:1037900000F049820023C268C36049460B9203F0DF
:1037A0002BFA0028C0F2BC8300F00D844946404645
:1037B00003F0ACFB55EC104B00224FF0804310EEB1
:1037C000100A294605F012F8002868D00B9B002B40
:1037D00000F0B2809FED427B8DED0C7B059B464D4A
:1037E0000E930024454E0E9A454B02EA06079F426F
:1037F00000F0BF81089B23B3B7F1D46F21D83AA35F
:10380000D3E90023DDE90C0104F0F0FFB0B1DDE9FC
:103810000C0105F047F8002800F0D48204F0F4FC15
:10382000CDE90C010B9B002B40F0C782DDE90C12A7
:1038300002F1004312911393DDE9124505F1D663BD
:10384000DD1B9DED020B03F077FA204653EC102BA5
:10385000294604F04FFDDDE9022304F099FBCDE990
:1038600004010C46089B23B9244B23409F4200F0DF
:10387000FC811A99584602F07BFF5146584602F0E7
:1038800077FF4946584602F073FF4146584602F01A
:103890006FFFDCE600230C9301230E931CE7194B0A
:1038A00020462946002204F025FD0B9BCDE90C01A2
:1038B000002B3CD101F1004310901193059B0E9316
:1038C000DDE910458EE74FF0010E002877D1089B07
:1038D000002B3FF415AD8246EEE500BFAFF300804C
:1038E000000000000000F03F0000C0FFFFFFDF41CC
:1038F000A04C020802FCFFFF0000F03F0000F07F38
:103900000000E07F0000E03F099A0A9ED51ACDE64C
:10391000B74FFF1A012303FA07F20C920E93DBE66E
:1039200019960023BAF1000F7FF455AD97E59DED90
:103930000C7B8DED107BC1E7DDE90412002940F01E
:10394000DE80C2F313030E92002B40F0DE800022D3
:10395000A84B2046294604F03FFF002840F053833F
:103960000022A54B2046294604F0C4FC0A46014625
:10397000CDE90C1202F1004316901793DDE91645CC
:1039800030E75046D446A246A7F13001092913D8A2
:10399000431C0F46002940F02A82199A1846531CEE
:1039A00019935778F0E701230293B31C1993B77862
:1039B0008EE500230293F8E74FF0010E03E54FF088
:1039C000000A79E5BEF1000F7FF49AAC493F252F3C
:1039D0003FF696AC01A353F827F000BF4F3500081F
:1039E00001330008013300080133000801330008E7
:1039F000193B0008013300080133000801330008B7
:103A000001330008013300080133000801330008C6
:103A100001330008013300080133000801330008B6
:103A200001330008013300080133000801330008A6
:103A30000133000801330008013300080133000896
:103A40000133000801330008013300080133000886
:103A50000133000801330008013300084F35000826
:103A60000133000801330008013300080133000866
:103A7000193B0008B6F59A7F00F3A6803611012E97
:103A80005E4B40F3DD82DDE904011F46089300230D
:103A9000984616F0010F08F101084FEA660604D0B7
:103AA000D7E9002304F026FC0123012E07F10807C3
:103AB000EFD1002B40F04A83059BA3F1547305938B
:103AC000089B03EBC808D8E90001DDE9042304F0F2
:103AD00011FC21F000431B0D494A1B059342CDE91F
:103AE000040171D8A2F58012934240F29582454BB1
:103AF0000593002308934FF0FF3304938FE5DDE92E
:103B00000412012900F063810E929FED357B0024A1
:103B10003D4D8DED0C7B65E619A83C4902F09AFB02
:103B200000283FF4EDAB199B1B78282B00F0E182B5
:103B3000374B0593002304931FE5079A01921AABB4
:103B40000093344A1BAB19A9584602F0F9F810F05B
:103B5000070504463FF488AC062D40F060819FEDD8
:103B6000227B09F10103199300238DED027B07935A
:103B70007EE4A2F1547305939DED047BB0EE470AF9
:103B8000F0EE670A03F0D8F8204653EC102B2946D4
:103B900004F0B0FBDDE9042304F0FAF91E4B06EA59
:103BA0000102CDE90401DDE902019A42CDE91401E7
:103BB00040F2E18003F15473994231D0114B0593E7
:103BC0004FF0FF33049354E6144B05930022049204
:103BD0009DED047B22238DED027BCBF8003047E482
:103BE000000000000000F03F0000000000000000A6
:103BF000E2FBFFFF0000F03F0000E03F904D0208B5
:103C00000000A07CFFFFEF7F0000F0BFE476020819
:103C10000000F8FFD8490208FFFF9F7C0000F07FFA
:103C2000149B0133CAD10F9F1A98B94B05930022F8
:103C300004929DED047B8DED027B2223CBF80030B6
:103C40000146584602F094FD5146584602F090FD58
:103C50004946584602F08CFD3946584602F088FD28
:103C60004146584602F084FD02E4DDE90C56314637
:103C7000284604F0EFFD04F0D7FA0B460246314621
:103C8000284604F083F90B9B06460F469BB9049B1C
:103C90008BB9C4F3130474B993A3D3E9002304F0DC
:103CA0009BFD00283FF4E5AD9DED047B0F9F1A9826
:103CB0008DED027BC4E78EA3D3E90023304639465D
:103CC00004F08AFD0028EFD1304639468AA3D3E9B3
:103CD000002304F09FFD00283FF4CBADE4E73FF460
:103CE0009CAC764216F00F020AD08A4B03EBC2035B
:103CF000DDE90401D3E9002304F026FCCDE9040149
:103D000036113FF48AAC1F2E28DC16F010030893FE
:103D100000F0C0816A23002E089340F3A781DDE9FB
:103D200004017D4F0023F20704D5D7E9002304F0F6
:103D3000E1FA0123761007F10807F4D1002B40F0D7
:103D40000282089B002B40F0918100220023DDE9D4
:103D5000040104F037FD00283FF461AC9FED687B5F
:103D60002223CBF800308DED027BFFF781BB44F6B8
:103D70001F63FFF7E2BB059B03F15474059471E5E3
:103D8000029FCAF125039F423FF72EAC614CCAF156
:103D90000F0B04EBCB01A7EB0B0BDDE90423D1E9FF
:103DA000000104EBCB0404F0A5FAD4E9002304F0ED
:103DB000A1FACDE90201FFF75BBB9DED0C7B8DED18
:103DC000127B39E59FED507B8DED0C7B2AE5DDE91B
:103DD00004120E92002A7FF498AE0F9F1A989FED5E
:103DE000487B2223CBF800308DED027B28E7012BA6
:103DF0009C4418BF504404D198E15500834243D0FD
:103E00009A46BAF1080F0AF1010305EB8502F4DDC9
:103E1000102BDCBF08EB88084FEA4808EEE71A9A37
:103E20003AB135211CA803F0C1F858461A9902F09E
:103E30009FFC013D042D06D8DFE805F01A0E0313A0
:103E40001A00334B059321077FF597AB059B43F091
:103E500000430593FFF791BB1C9B04931D9B0593A7
:103E6000F1E76FF0004305934FF0FF330493EAE767
:103E70001B9A1D9B1C99049102F2334223F4801378
:103E800043EA02530593DEE7199A0AF1020A082B66
:103E900011DDBAF1100FD8BF08EB88084FF0000011
:103EA000D8BF01EB48087AE5199A303F00F1010CC0
:103EB00091464FF0010A05EB850507EB450500200B
:103EC0006DE5029A12F11603FFF68EAB114BA3EBD0
:103ED000C203DDE90401D3E9002304F035FBCDE999
:103EE0000201FFF7C5BA00BF9535A094FFFFCF3F91
:103EF0009535A094FFFFDF3F35E5AF350000E03F8B
:103F00000000000000000000000000000000F03F82
:103F10000000F07FA04C0208004A02080F9F84E6D0
:103F20000B9B0F9F9BBBDDE9041281BBC2F3130304
:103F3000144663BB22F000431B0D1B05B3F1D66F83
:103F400025D9D8F814301BB9D8F81030012B1EDD54
:103F500041460122584602F0FBFD4946804602F0E8
:103F60004BFE002813DD089B002B40F0D4807E4BD5
:103F70002340A3F580136FEA13536FEA03530593AD
:103F80004FF0FF3304939DED047B8DED027B089B86
:103F9000BBB1764B159300231493DDE91423DDE9BF
:103FA000020104F0A7F903460C46CDE90201CDE970
:103FB000043431B9049B23B922231A98CBF800307A
:103FC0003EE61A983CE60B9B0F9F53B3DDE9044590
:103FD000674BC5F3130199422A465FD00C9B53B33C
:103FE000059A1342D3D00B9B089ADDE904015BB319
:103FF000FFF726F902460B46DDE9020103F0C8FF90
:10400000CDE90201C3E79FED547B8DED167B9FED5B
:10401000547B8DED0C7BB1E401F154730593FFF7F4
:10402000FCBADDE90412C2F313031446002BD5D108
:104030000029D3D197E70E9B049A1342A7D0D2E769
:1040400008934FF0000837E5FFF7FAF802460B46F1
:10405000DDE9020103F09AFF00220023CDE902010D
:1040600004F0B0FB00287FF4B9AE90E7DDE904125C
:10407000C2F30A53C3F16B03002B11467FF765AE01
:104080001F2B2EDD0022342B049254DD4FF05C7385
:1040900005935AE6002E3FF742AE56E6089B049978
:1040A000E3B1314B2B40B3F1D46F17D81B0DC3F1E3
:1040B0006B034FF0FF3000FA03F38B428ED12D4992
:1040C0008A4246D0284B134003F580130593002302
:1040D00004939DED047B8DED027B58E74FF0FF3399
:1040E000EBE74FF0FF3202FA03F3049A1A4004920E
:1040F0002BE619A81CAA204902F0C4F805287FF471
:1041000017AD1D9B43F0FF4343F4E00305931C9B55
:104110000493FFF732BA144B2340B3F1D66F3FF745
:1041200028AFB3F15C7F3FF734AF57E65346199A97
:104130000AF1010AABE6203B4FF0FF3202FA03F32B
:104140000B40059301E6CDE90401FAE5CDE9040150
:10415000B2E40133B6D167E5000000000000E0BF23
:10416000000000000000E03F0000F07F0000503938
:10417000FFFF0F00FFFFEF7FEC490208024B0A46EA
:1041800001461868FFF778B80400002038B50E4BD8
:104190000A4601461868FFF76FF855EC104B10EE11
:1041A000102A2B4610EE100A294604F03DFB30B9C8
:1041B0002046294604F096FB00EE100A38BD002088
:1041C000BDE83840FEF7B8BB040000202DE9F04FF1
:1041D000414C83B0D4F800C00190084600E0284666
:1041E000054615F8014B0CEB0406777817F0080725
:1041F000F5D12D2C4BD02B2C04BF2C78851C1BB15A
:10420000102B53D0994603E0302C5CD00A239946FA
:10421000002F0CBF6FF0004A4FF0004A4FF0000E25
:10422000BAFBF9F8704609FB18AB0EE0303CA3422C
:104230001BDDBEF1FF3F06D0404525D822D009FB4B
:1042400000404FF0010E15F8014B0CEB0406767898
:1042500016F0040FEAD116F0030606D0012E14BFA3
:1042600057263726A41BA342E3DCBEF1FF3F12D042
:1042700007B140421AB1BEF1000F15D1116003B071
:10428000BDE8F08F5C45DADD4FF0FF3EDBE72C78D0
:104290000127851CB3E7019922230B605046002AB1
:1042A000EDD0691E5046E9E78246FAE7302CA9D1E5
:1042B000287800F0DF005828A4D14FF010096C785E
:1042C0004B460235A4E72B7803F0DF03582BF4D0DC
:1042D000082399469CE700BF6800002010B4044CF6
:1042E00013460A46014620685DF8044BFFF76EBF8F
:1042F00004000020F8B50D461446064610B1836947
:10430000002B42D0254B9C4244D0254B9C4243D0AD
:10431000244B9C4208BFF468A389A269A2601A07D3
:1043200022D5236903B322686169D31AEDB28B42A7
:104330002F4621DA0133A168501C0139A1602060A9
:10434000157062699A4206D0A389DB0701D50A2D50
:1043500001D03846F8BD2146304601F081F90028E9
:10436000F7D04FF0FF37F4E72146304600F03AF837
:104370000028F6D12369D6E72146304601F070F9CE
:104380000028EED122680123D5E701F0A5FA034BFE
:104390009C42BAD17468BFE7B468BDE76C4B0208B1
:1043A0004C4B02082C4B0208024B0A460146186887
:1043B000FFF7A0BF0400002070B50D46084C114661
:1043C00006461A4628460023236013F0F5FD431CD9
:1043D00000D070BD2368002BFBD0336070BD00BFE0
:1043E00004340020384B70B51D6806460C4615B1E4
:1043F000AB69002B42D0354B9C4245D0344B9C429C
:1044000058D0344B9C4208BFEC68B4F90C2093B2EE
:1044100019070CD52069A8B113F001021ED06369F9
:1044200000225B42A361A260F0B1002070BDDD06F6
:1044300042D558072AD4206942F00803A3819BB2D1
:104440000028E9D103F42072B2F5007FE4D03046B1
:10445000214602F05DF8A3892069DDE7990758BF7E
:104460006269A2600028E0D1B4F90C301A06DDD5EB
:1044700043F04003A3814FF0FF3070BD284601F0A8
:104480002BFA124B9C42B9D16C68BEE7616B51B1FB
:1044900004F14403994204D03046FCF7F5FFB4F927
:1044A0000C200023636300232069636022F0240250
:1044B0002060C1E7AC68A8E742F0400209233360FE
:1044C0004FF0FF30A28170BD040000206C4B020849
:1044D0004C4B02082C4B020838B5074C002305460C
:1044E0000846236005F0F2FB431C00D038BD23686A
:1044F000002BFBD02B6038BD0434002000000000EE
:1045000002690B69934200F38D802DE9F04F03F1AE
:10451000FF3801F1140700F1140B57F828205BF85D
:1045200028304FEA880483B00132B3FBF2F90BEB79
:104530000403009407EB040A0193B9F1000F39D08A
:1045400000252E46BC46DE465CF8044BDEF8003003
:10455000A2B209FB0255220C2C0C09FB0242ADB29F
:10456000751B96B2C6EB134615FA83F306EB23468A
:104570009BB243EA0643E2454FEA12454EF8043B3C
:104580004FEA2646E0D2009B5BF8033093B9019CCA
:10459000231F9B450CD254F8043C4BB9A4F10803EB
:1045A00002E01A68043B1AB99B4508F1FF38F8D3BA
:1045B000C0F81080044602F01FFB00282EDB09F132
:1045C00001095D46002357F8041B28688AB29A1A2D
:1045D0000B0C12FA80F2C3EB104303EB224392B2AE
:1045E00042EA0342BA4545F8042B4FEA2343EAD294
:1045F0005BF828200BEB880382B91A1F93450BD276
:1046000053F8042C42B9083B02E01A68043B1AB97B
:104610009B4508F1FF38F8D3C4F81080484603B032
:10462000BDE8F08F002070472DE9F04F57EC106B7C
:1046300099B0456A0291044693460493CDE9006718
:10464000002D00F00382296849B16A684A6001239D
:1046500093408B6002F08CF8636A00221A60DDE9F7
:104660000023002B99463FDB229A00231360A84BBE
:1046700033EA09031AD0DDE900670022002330463F
:10468000394604F09FF88046002836D0049A01236A
:104690001360239B002B00F0CB809E4B239A03F1E9
:1046A000FF391360484619B0BDE8F08F049A42F212
:1046B0000F731360009B7BB9C9F3130363B9239B8A
:1046C000DFF86092002BEDD009F10803239A4846E9
:1046D000136019B0BDE8F08F239BDFF84C92002BDC
:1046E000E0D009F10303F1E7019A22F00049229A90
:1046F000CDF8049001231360B9E716AA17A947EC77
:10470000106B204602F0A4FB5FEA1955824673D075
:10471000C7F3130343F07F51CDF84880DDF858808C
:104720003046A5F2FF3541F4401100227A4B03F0E8
:104730002DFC71A3D3E9002303F0DCFD70A3D3E9C2
:10474000002303F025FC064628460F4603F06CFDC7
:104750006DA3D3E9002303F0CDFD02460B4630469E
:10476000394603F015FC06460F4604F073F80022A4
:10477000059000233046394604F02EF8002840F01A
:104780007481059E162E56D8644B03EBC603D3E9FD
:104790000001DDE9002304F03DF8002800F0CD81A0
:1047A000731E059300230C93A8EB05056B1E06935F
:1047B00000F1558100230793059B002BC0F2678110
:1047C000069A0B9311461944002306910A93029B03
:1047D000092B33D8052B40F39186043B02934FF00D
:1047E0000008029B023B032B00F28C86DFE813F0EB
:1047F000FB03DB0208049804DDF85880179D45444C
:1048000005F23243202B40F39A81C3F1400309FAA9
:1048100003F9009B05F2124023FA00F040EA090078
:1048200003F0F2FC0123013DA1F1F87112937CE742
:10483000DFF8F89036E701230C93B5E7666A0025A8
:1048400075602946204601F05FFF636A30604FF0D3
:10485000FF32D3F8009008920123AB4602950D92E7
:104860000993179B002BC0F2D180059A0E2A00F302
:10487000CD802A4B03EBC20393ED007BBBF1000F0D
:104880008DED027BC0F2DA83DDE90067DDE902230A
:104890003046394603F058FE03F0DCFF804603F053
:1048A000C3FCDDE9022303F025FD0B460246394631
:1048B000304603F06BFB08F1300389F80030089BA9
:1048C000012B06460F4609F1010561D00022144B69
:1048D00003F010FD0022002306460F4603F072FF8E
:1048E000002840F08080CDF800A00694DDE902ABFE
:1048F000089C28E0AFF3008061436F63A787D23F35
:10490000B3C8608B288AC63FFB799F501344D33FBE
:104910000000F07FCD5B02080000F83FA04C0208C9
:1049200000002440E8760208F4760208CC5B020816
:1049300003F0E0FC0022002306460F4603F042FF8E
:10494000002840F0F08352465B463046394603F07B
:10495000FBFD03F07FFF804603F066FC52465B469A
:1049600003F0C8FC02460B463046394603F00EFB06
:1049700008F1300E05F801EBA5EB090EA645064639
:104980000F464FF00002714BD2D1DDF800A0069C1B
:1049900032463B463046394603F0FAFA06460F46A1
:1049A00002460B46DDE9020103F016FF48B9324624
:1049B0003B46DDE9020103F005FFA0B118F0010F4D
:1049C00011D015F8018C6B1E04E0994500F0648449
:1049D00013F8018DB8F1390F03F10105F5D008F195
:1049E000010883F800805146204601F0C1FE0022F4
:1049F000059B2A70049A01331360239B002B3FF41C
:104A000051AE48461D6019B0BDE8F08F099A002AE2
:104A100046D0029A012A40F33983089B0A9A5F1E06
:104A2000BA42C0F2B283D71B089B002BC0F2C684E7
:104A3000079D089B079A1A440792069A01211A4477
:104A40002046069201F08CFF06462CE01020FCF771
:104A500023FC6062456085600560C560FFE5C5F1C7
:104A60000103079300230693A6E6DDF81490484659
:104A700003F0DAFB02460B463046394603F0A2FE4D
:104A800000287FF47EAE09F1FF33059379E6079A9B
:104A9000059BD21A5B420A93002307920B9396E67A
:104AA0000A9F079D099E002D0CDD069900290B46E3
:104AB00008DDA942079AA8BF2B46D21AED1ACB1AD5
:104AC000079206930A9BD3B1099B002B00F0D78273
:104AD000002F10DD31463A46204601F0DDFF5246F8
:104AE00001460646204601F045FF514680462046D5
:104AF00001F03EFEC2460A9BDA1B40F0C182012152
:104B0000204601F02DFF0B9B002B804620DD014647
:104B10001A46204601F0C0FF029B012B804640F35D
:104B2000728200230A93D8F8103008EB83031869C7
:104B300001F0C6FEC0F1200014E00C9034E6C3F191
:104B40002009009B03FA09F06AE600BF0000244038
:104B5000029B012B40F3A38200230A930B9B0120AD
:104B6000002BE0D1069A104410F01F0000F0A58041
:104B7000C0F12003042B40F3BB84079BC0F11C0051
:104B8000034407931346034405440693079B002BF5
:104B900005DD51461A46204601F0DAFF8246069BA3
:104BA000002B05DD41461A46204601F0D1FF804624
:104BB0000C9B002B40F08A80089B002B40F37F82E7
:104BC000099B002B00F09C80002D05DD31462A4614
:104BD000204601F0BDFF06460A9B002B40F066838D
:104BE0000696089BCDF82890013B4B440893009B08
:104BF0004F4603F00103C146DDF81880099349468A
:104C00005046FFF77DFC31460546504601F0F4FF63
:104C1000424649468346204602F00AF805F1300232
:104C20000092C2680146002A40F044820790504634
:104C300001F0E2FF079B06901946204601F098FD1F
:104C4000069A32B9029B23B9099B002B00F02284FB
:104C5000029ABBF1000FC0F2B68205D1029B1BB9CC
:104C6000099B002B00F0AF82002A00F333839DF8EC
:104C700000303B70089B07F1010B9F425D4600F03E
:104C80003983514600230A22204601F08DFD464516
:104C9000824631464FF000034FF00A02204600F0F2
:104CA000038201F081FD4146064600230A22204688
:104CB00001F07AFD5F468046A1E71C20079B034474
:104CC0000793069B0344054406935FE7414650461D
:104CD00001F092FF0028BFF66FAF059F51460023F9
:104CE0000A222046013F059701F05EFD099B82469E
:104CF000002B40F0E3830D9B002B40F3EC830893E3
:104D00004D46DDF820B002E001F04EFD82464146FE
:104D10005046FFF7F5FB00F1300705F8017BA5EBE6
:104D200009035B454FF00A024FF00003514620464D
:104D3000EADB089B0097012BACBF09EB030509F1E7
:104D400001054FF0000B51460122204601F000FF03
:104D50004146824601F050FF002840F3558215F885
:104D6000012C6B1E04E04B4500F0C58113F8012DAA
:104D7000392A03F10105F6D001321A704146204666
:104D800001F0F6FC002E3FF42EAEBBF1000F05D073
:104D9000B34503D05946204601F0EAFC314620468F
:104DA00001F0E6FC1FE600230993059B5B440D938D
:104DB0000133012B1F461D460893B8BF0127666AC1
:104DC0000021172F71600AD9012204235B0003F12F
:104DD0001400B842114602F10102F7D97160204671
:104DE00001F092FC636A30600E2DD3F800903FF61C
:104DF00038ADB8F1000F3FF434AD9DED007B05995F
:104E000000298DED0E7B40F31982BE4B01F00F029D
:104E100003EBC2030D11D3E90067EB0640F1BD813E
:104E2000B94B51EC170BD3E9082303F08DFBCDE907
:104E30001001032305F00F050093C5B1CDF84CB068
:104E4000DFF8C482A346009CE80708D530463946FF
:104E5000D8E9002303F04EFA013406460F466D10E0
:104E600008F10808F0D100945C46DDF84CB03B46F0
:104E70003246DDE9100103F067FB074688460C9BCC
:104E800043B10022A14B3846414603F0A5FC00285F
:104E900040F0A682009803F0C7F93A46434603F073
:104EA00029FA9B4B002203F073F8A1F15073CDE96E
:104EB00000010193089B002B00F04981059B13938F
:104EC000089B1093099B002B00F01F82109A8D4BBA
:104ED000904903EBC20353E90223002003F034FBA3
:104EE000DDE9002303F052F8CDE9000141463846E0
:104EF00003F0B0FC054603F097F902460B4638462E
:104F0000414603F043F830355FFA85F806460F4610
:104F100002460B4689F80080DDE9000109F1010530
:104F200003F078FC00285BD132463B4600207749ED
:104F300003F02CF802460B46DDE9000103F06AFCA1
:104F4000002840F0A082109A012A00F07181109B85
:104F5000CDF850904B44CDF840A0CDF854B09946D0
:104F6000A046DDE900AB0DE00020684903F00EF833
:104F700052465B4603F030FC002840F07D824D45F0
:104F800000F04F81504659460022634B03F0B2F9BE
:104F90000022614B82468B463046394603F0AAF91F
:104FA0000F46064603F056FC044603F03DF9024660
:104FB0000B463046394602F0E9FF3034E4B252463F
:104FC0005B4605F8014B06460F4603F005FC3246EA
:104FD0003B460028C8D0DDF840A0DDF8509044469C
:104FE000139B0593FFE400230993BBF1000F40F3EB
:104FF000DB805F465D46CDF834B0CDF820B0DEE60C
:1050000001230993F1E7009B002B7FF48AADDDE9D2
:105010000012C2F31303002B7FF49EAD22F0004771
:105020003F0D3F05002F00F03282079B01330793AD
:10503000069B0133069301230A938FE5089B002BFF
:105040003FF722AC40F09D800022344BDDE90201A5
:1050500003F050F9DDE9002303F0D2FBDDF82080F6
:10506000464600283ED06FEA0B0305934D46414665
:10507000204601F07DFB002E3FF4B5AC8EE60A9A87
:105080005146204601F008FD824638E5129A002A72
:1050900000F09A8103F233430A9F079DCAE4009B04
:1050A000002B7FF459ADB2E701F07EFB5F46064668
:1050B0008046A4E5204601F05BFB0122C9E5029B86
:1050C000022B7FF77DAD089B002BCCD141460522FA
:1050D000204601F069FB01468046504601F08CFDF8
:1050E0000028C0DD059A31230132059289F800308D
:1050F00009F10105BBE7059A31230132059289F8D0
:1051000000303BE6A04C0208904D02080000F03F42
:1051100000001C400000E03F00002440000014405C
:105120000123099341E6DDF800A0069C5BE40098AA
:1051300003F07AF83A46434603F0DCF8BE4B00220F
:1051400002F026FFA1F15073CDE90001019338462A
:105150000022BA4B414602F019FFDDE90023064662
:105160000F4603F057FB002840F0CB80DDE900013B
:10517000024601F100433046394603F02DFB00287A
:1051800056D04FF0000846466DE70A9B0B9A0A97E7
:10519000FB1A1A440B92002746E49DED0E7B022376
:1051A0008DED107B009348E6656A0021696020461A
:1051B00001F0AAFA636A286001220892D3F80090ED
:1051C0000D92934615E6002ACDF81880C846DDF802
:1051D000289012DD51460122204601F0B9FC4146DB
:1051E000824601F009FD002840F36181009B392BC4
:1051F00000F01C8105F1310300939DF800303B70F5
:10520000B3467D1C069EB9E504D1009BDB0701D5A2
:10521000A5E5154615F8013C302B05F1FF32F8D015
:10522000ACE5DDF840A0DDF85090DDF854B0444620
:10523000DDE90E23CDE90023FFF713BB00F0CB809F
:10524000059B5D427E4B05F00F0203EBC203D3E9E1
:105250000023DDE90E0103F04DF82D1107468846C5
:1052600000F03E810223774ECDF840B0A3461C46A5
:10527000E90708D538464146D6E9002303F03AF855
:105280000134074688466D1006F10806F0D10094F7
:105290005C46DDF840B0F2E5302289F80020059A3E
:1052A00015F8018C01320592FFF799BB7168204611
:1052B00001F02AFA336902339A00054606F10C011F
:1052C0000C30FBF7F9FF29460122204601F040FC93
:1052D000069086E4009BCDF81880392BC846DDF88F
:1052E000289000F0A380009B0133B3463B707D1CE7
:1052F000069E43E54346B346C8461E46DDF8289061
:1053000021E54FF000084646ECE6109B4C4901EBC6
:10531000C30151E90201DDE9002302F0EBFFCDE911
:1053200000013846414603F095FA054602F07CFF3D
:105330000B4602464146384602F028FE109B3035A7
:10534000012B89F8005006460F4609F1010523D0CC
:10535000109BCDF840A04B44CA46994600223A4BD8
:105360003046394602F0C6FF0F46064603F072FA91
:10537000804602F059FF08F1300802460B463046DD
:10538000394602F003FE05F8018B4D4506460F46EF
:10539000E4D1D146DDF840A02C4B0022DDE900012C
:1053A00002F0F6FD32463B4603F016FA00284FD0D5
:1053B000139B059315F8018CFFF705BB079B089A13
:1053C0009D1A0023FFF736BB169B0A9F079DC3F16A
:1053D0003603FFF72FBB0223DDE90E7800934EE57D
:1053E000089B002B3FF4A3AE0D9D002D7FF720AF4F
:1053F0000022154B3846414602F07CFF07460098D4
:105400008846013002F010FF3A46434602F072FF30
:10541000094B002202F0BCFDA1F15073CDE900015F
:105420000193059B1095013B13934BE53922B3463D
:105430003A70069E7D1C94E400001C40000014405D
:10544000A04C0208904D0208000024400000E03FFC
:10545000DDE900230020374902F098FD32463B4643
:1054600003F0D8F908B9E3E6154615F8013C302BEE
:1054700005F1FF32F8D0B3E54346DDF840A0DDF892
:105480005090A0461C46139B0593FFF79CBA0A97C1
:10549000FFF764BB009BCDF81880392BC846DDF8B8
:1054A0002890C3D0BBF1000F3FF7A4AEA5E67FF470
:1054B000A4AE009BDA077FF5A0AE97E63146002345
:1054C0000A22204601F070F90D9B002B06460ADDEA
:1054D0000893FFF779BB029B022B27DC0D9B0EE4A0
:1054E00002230093CBE4029B022B1FDC0D9BEFE712
:1054F0003FF44CABC0F13C00FFF7E0BB4FF00108BC
:10550000FFF76FB9666A002575602946204601F0ED
:10551000FBF8636A30604FF0FF32D3F800900892D6
:105520000123AB460D920993FFF79BB90D9B08939E
:10553000C9E500BF0000E03F8B891A072DE9F04163
:105540000D46804633D44A68002A67DDEC6A002C99
:1055500045D00022D8F80060C8F8002013F480522B
:1055600060D06A6D5F0705D569686B6B521A0BB125
:105570002B6CD21A0023296A4046A047441C39D01C
:10558000AB892A692A60DB044FF000026A6043D4C9
:10559000696BC8F8006011B305F14403994202D069
:1055A0004046FBF771FF00206863BDE8F0810E699B
:1055B000AEB10C680E6098070CBF4B690023A41BAA
:1055C0008B600AE023463246AF6A296A4046B847F4
:1055D0000028A4EB0004064404DD002CF2DC0020CB
:1055E000BDE8F081AB8943F04003AB814FF0FF3061
:1055F000BDE8F081D8F800201D2AF3D8174BD3401E
:10560000DB4313F00103EDD1A9892C696B60C90458
:105610002C60BDD5002ABBD16865B9E70A6C002AA9
:1056200094DCDCE70123296A4046A047431C02467C
:1056300002D0AB89EC6A95E7D8F80030002BF8D09F
:105640001D2B01D0162B02D1C8F80060C7E7AB892B
:1056500043F04003AB81BDE8F08100BF0100402072
:105660000B6933B310B5044682B008B18369ABB19E
:10567000114B994219D0114B994218D0104B9942B5
:1056800008BFE168B1F90C3013B9002002B010BDB9
:10569000204602B0BDE81040FFF74EBF019100F078
:1056A0001BF90199044B9942E5D16168EAE7A168C9
:1056B000E8E70020704700BF6C4B02084C4B020823
:1056C0002C4B020820B1054B01461868FFF7C8BFF4
:1056D000034B0449186800F0BDBA00BF0400002065
:1056E000D04902086156000800207047014900F0C7
:1056F000B1BA00BF615600080020704770B54A1E5D
:10570000682505FB02F50E4605F17401FBF704FF61
:10571000044640B100210C30666005F1680221604A
:10572000A060FBF763FE204670BD00BF204B70B544
:105730001D68AB6906465BB348356B68AC68013BD6
:1057400005D521E0013B5A1C04F168041CD0B4F9D2
:105750000C20002AF6D100254FF6FF720123E281CA
:10576000A38165662560A560656025616561A561A9
:105770002946082204F15C00FBF738FE6563A56347
:10578000A564E564204670BD286828B10546D4E7C5
:10579000284600F00FF8CFE704213046FFF7AEFFB0
:1057A00028600028F2D10C2304463360EAE700BFEA
:1057B000D04902083D4B3E491A682DE9F04F90420E
:1057C0004FF000038364C364036508BF012383B003
:1057D00008BF836181620746FFF7A8FF78603846FB
:1057E000FFF7A4FFB8603846FFF7A0FF7D68F860B8
:1057F00000240423AB812C606C60AC606C66EC818F
:105800002C616C61AC61214605F15C000822FBF75C
:10581000EDFDBE68DFF89CB0DFF89CA0DFF89C903F
:10582000DFF89C80C5F824B001230922C5F828A020
:10583000C5F82C90C5F830802D622146F381B281E5
:1058400034607460B460746634617461B46106F18C
:105850005C0008220193FBF7C9FDFD683662122047
:105860000222C6F824B0C6F828A0C6F82C90C6F8C4
:1058700030802146A881EA812C606C60AC606C6647
:105880002C616C61AC6105F15C000822FBF7AEFD98
:10589000019B2D62C5F824B0C5F828A0C5F82C904E
:1058A000C5F83080BB6103B0BDE8F08FD049020875
:1058B000ED560008452D00086D2D0008A92D0008A3
:1058C000C92D0008024B0349186800F0C3B900BF96
:1058D000D049020861560008836903B96AE7704736
:1058E000704700BF704700BF704700BF704700BFE0
:1058F000024B0349186800F087B900BF040000207C
:10590000F9560008024B0349186800F07DB900BF42
:1059100004000020E95600089368002B73D02DE99D
:10592000F04F8B8983B00C4619070090164626D598
:10593000226922B313F0020035682CD04FF0000921
:10594000B04FC846B246B84543464A4628BF3B46D4
:105950000098B8F1000F50D0216AA66AB04700281D
:1059600058DDDAF808301B1A8144A8EB0008CAF8A1
:105970000830002BE7D1002003B0BDE8F08F2146AE
:105980000098FEF72FFD002840F03381A389356889
:1059900013F00200D2D113F0010945D14F46019610
:1059A00037B39A05D4F8088040F183804745C34651
:1059B000C0F0AB8013F4906F40F0AC802068BA4622
:1059C0005A46494600F03CFEA2682368A2EB080252
:1059D0005B44A2602360019A9368A3EB0A03D1445D
:1059E000A7EB0A079360002BC5D0A389002FD8D15D
:1059F000D5F800906F680835D2E7D5F80090D5F853
:105A0000048008359FE70020704721460098FFF783
:105A100027FE70B3B4F90C3043F040034FF0FF3071
:105A2000A38103B0BDE8F08F814633464E46A846B9
:105A30009A464D464EB380B3206823696269B145EA
:105A4000CB4628BFB34698425F4604D9A3681344A7
:105A50009B4500F3A68093454BDB1346A76A216A5A
:105A600000982A46B847071ED4DDB9EB0709CCD009
:105A70000120DAF80830DB1B3D44F61BCAF8083079
:105A8000002B3FF478AF002ED5D108F1080313E9BD
:105A9000600098460833002EF9D032460A21284685
:105AA00000F07EFD002800F0A1800130A0EB050988
:105AB000C2E720682369984202D863699F425DD299
:105AC000B84528BFB8464246494600F0B9FDA3682C
:105AD0002268A3EB08034244A36022600BB1C246D4
:105AE00079E721460098FFF7BBFD002892D1C24616
:105AF00071E75A46294600F0A3FDA2682368A2EB8D
:105B00000B025B44A2602360AFE72068B846BA4648
